{
  "_format": "hh-sol-artifact-1",
  "contractName": "NFT",
  "sourceName": "contracts/NFT.sol",
  "abi": [
    {
      "inputs": [],
      "stateMutability": "nonpayable",
      "type": "constructor"
    },
    {
      "anonymous": false,
      "inputs": [
        {
          "indexed": true,
          "internalType": "address",
          "name": "owner",
          "type": "address"
        },
        {
          "indexed": true,
          "internalType": "address",
          "name": "approved",
          "type": "address"
        },
        {
          "indexed": true,
          "internalType": "uint256",
          "name": "tokenId",
          "type": "uint256"
        }
      ],
      "name": "Approval",
      "type": "event"
    },
    {
      "anonymous": false,
      "inputs": [
        {
          "indexed": true,
          "internalType": "address",
          "name": "owner",
          "type": "address"
        },
        {
          "indexed": true,
          "internalType": "address",
          "name": "operator",
          "type": "address"
        },
        {
          "indexed": false,
          "internalType": "bool",
          "name": "approved",
          "type": "bool"
        }
      ],
      "name": "ApprovalForAll",
      "type": "event"
    },
    {
      "anonymous": false,
      "inputs": [
        {
          "indexed": true,
          "internalType": "address",
          "name": "previousOwner",
          "type": "address"
        },
        {
          "indexed": true,
          "internalType": "address",
          "name": "newOwner",
          "type": "address"
        }
      ],
      "name": "OwnershipTransferred",
      "type": "event"
    },
    {
      "anonymous": false,
      "inputs": [
        {
          "indexed": true,
          "internalType": "address",
          "name": "from",
          "type": "address"
        },
        {
          "indexed": true,
          "internalType": "address",
          "name": "to",
          "type": "address"
        },
        {
          "indexed": true,
          "internalType": "uint256",
          "name": "tokenId",
          "type": "uint256"
        }
      ],
      "name": "Transfer",
      "type": "event"
    },
    {
      "inputs": [
        {
          "internalType": "address",
          "name": "to",
          "type": "address"
        },
        {
          "internalType": "uint256",
          "name": "tokenId",
          "type": "uint256"
        }
      ],
      "name": "approve",
      "outputs": [],
      "stateMutability": "nonpayable",
      "type": "function"
    },
    {
      "inputs": [
        {
          "internalType": "address",
          "name": "owner",
          "type": "address"
        }
      ],
      "name": "balanceOf",
      "outputs": [
        {
          "internalType": "uint256",
          "name": "",
          "type": "uint256"
        }
      ],
      "stateMutability": "view",
      "type": "function"
    },
    {
      "inputs": [],
      "name": "count",
      "outputs": [
        {
          "internalType": "uint256",
          "name": "",
          "type": "uint256"
        }
      ],
      "stateMutability": "view",
      "type": "function"
    },
    {
      "inputs": [
        {
          "internalType": "uint256",
          "name": "tokenId",
          "type": "uint256"
        }
      ],
      "name": "getApproved",
      "outputs": [
        {
          "internalType": "address",
          "name": "",
          "type": "address"
        }
      ],
      "stateMutability": "view",
      "type": "function"
    },
    {
      "inputs": [
        {
          "internalType": "address",
          "name": "owner",
          "type": "address"
        },
        {
          "internalType": "address",
          "name": "operator",
          "type": "address"
        }
      ],
      "name": "isApprovedForAll",
      "outputs": [
        {
          "internalType": "bool",
          "name": "",
          "type": "bool"
        }
      ],
      "stateMutability": "view",
      "type": "function"
    },
    {
      "inputs": [
        {
          "internalType": "string",
          "name": "uri",
          "type": "string"
        }
      ],
      "name": "isContentOwned",
      "outputs": [
        {
          "internalType": "bool",
          "name": "",
          "type": "bool"
        }
      ],
      "stateMutability": "view",
      "type": "function"
    },
    {
      "inputs": [],
      "name": "name",
      "outputs": [
        {
          "internalType": "string",
          "name": "",
          "type": "string"
        }
      ],
      "stateMutability": "view",
      "type": "function"
    },
    {
      "inputs": [],
      "name": "owner",
      "outputs": [
        {
          "internalType": "address",
          "name": "",
          "type": "address"
        }
      ],
      "stateMutability": "view",
      "type": "function"
    },
    {
      "inputs": [
        {
          "internalType": "uint256",
          "name": "tokenId",
          "type": "uint256"
        }
      ],
      "name": "ownerOf",
      "outputs": [
        {
          "internalType": "address",
          "name": "",
          "type": "address"
        }
      ],
      "stateMutability": "view",
      "type": "function"
    },
    {
      "inputs": [
        {
          "internalType": "address",
          "name": "recipient",
          "type": "address"
        },
        {
          "internalType": "string",
          "name": "metadataURI",
          "type": "string"
        }
      ],
      "name": "payToMint",
      "outputs": [
        {
          "internalType": "uint256",
          "name": "",
          "type": "uint256"
        }
      ],
      "stateMutability": "payable",
      "type": "function"
    },
    {
      "inputs": [],
      "name": "renounceOwnership",
      "outputs": [],
      "stateMutability": "nonpayable",
      "type": "function"
    },
    {
      "inputs": [
        {
          "internalType": "address",
          "name": "to",
          "type": "address"
        },
        {
          "internalType": "string",
          "name": "uri",
          "type": "string"
        }
      ],
      "name": "safeMint",
      "outputs": [],
      "stateMutability": "nonpayable",
      "type": "function"
    },
    {
      "inputs": [
        {
          "internalType": "address",
          "name": "from",
          "type": "address"
        },
        {
          "internalType": "address",
          "name": "to",
          "type": "address"
        },
        {
          "internalType": "uint256",
          "name": "tokenId",
          "type": "uint256"
        }
      ],
      "name": "safeTransferFrom",
      "outputs": [],
      "stateMutability": "nonpayable",
      "type": "function"
    },
    {
      "inputs": [
        {
          "internalType": "address",
          "name": "from",
          "type": "address"
        },
        {
          "internalType": "address",
          "name": "to",
          "type": "address"
        },
        {
          "internalType": "uint256",
          "name": "tokenId",
          "type": "uint256"
        },
        {
          "internalType": "bytes",
          "name": "data",
          "type": "bytes"
        }
      ],
      "name": "safeTransferFrom",
      "outputs": [],
      "stateMutability": "nonpayable",
      "type": "function"
    },
    {
      "inputs": [
        {
          "internalType": "address",
          "name": "operator",
          "type": "address"
        },
        {
          "internalType": "bool",
          "name": "approved",
          "type": "bool"
        }
      ],
      "name": "setApprovalForAll",
      "outputs": [],
      "stateMutability": "nonpayable",
      "type": "function"
    },
    {
      "inputs": [
        {
          "internalType": "bytes4",
          "name": "interfaceId",
          "type": "bytes4"
        }
      ],
      "name": "supportsInterface",
      "outputs": [
        {
          "internalType": "bool",
          "name": "",
          "type": "bool"
        }
      ],
      "stateMutability": "view",
      "type": "function"
    },
    {
      "inputs": [],
      "name": "symbol",
      "outputs": [
        {
          "internalType": "string",
          "name": "",
          "type": "string"
        }
      ],
      "stateMutability": "view",
      "type": "function"
    },
    {
      "inputs": [
        {
          "internalType": "uint256",
          "name": "tokenId",
          "type": "uint256"
        }
      ],
      "name": "tokenURI",
      "outputs": [
        {
          "internalType": "string",
          "name": "",
          "type": "string"
        }
      ],
      "stateMutability": "view",
      "type": "function"
    },
    {
      "inputs": [
        {
          "internalType": "address",
          "name": "from",
          "type": "address"
        },
        {
          "internalType": "address",
          "name": "to",
          "type": "address"
        },
        {
          "internalType": "uint256",
          "name": "tokenId",
          "type": "uint256"
        }
      ],
      "name": "transferFrom",
      "outputs": [],
      "stateMutability": "nonpayable",
      "type": "function"
    },
    {
      "inputs": [
        {
          "internalType": "address",
          "name": "newOwner",
          "type": "address"
        }
      ],
      "name": "transferOwnership",
      "outputs": [],
      "stateMutability": "nonpayable",
      "type": "function"
    }
  ],
  "bytecode": "0x60806040523480156200001157600080fd5b506040518060400160405280600981526020017f46697265644775797300000000000000000000000000000000000000000000008152506040518060400160405280600381526020017f4659520000000000000000000000000000000000000000000000000000000000815250816000908051906020019062000096929190620001a6565b508060019080519060200190620000af929190620001a6565b505050620000d2620000c6620000d860201b60201c565b620000e060201b60201c565b620002bb565b600033905090565b6000600760009054906101000a900473ffffffffffffffffffffffffffffffffffffffff16905081600760006101000a81548173ffffffffffffffffffffffffffffffffffffffff021916908373ffffffffffffffffffffffffffffffffffffffff1602179055508173ffffffffffffffffffffffffffffffffffffffff168173ffffffffffffffffffffffffffffffffffffffff167f8be0079c531659141344cd1fd0a4f28419497f9722a3daafe3b4186f6b6457e060405160405180910390a35050565b828054620001b49062000285565b90600052602060002090601f016020900481019282620001d8576000855562000224565b82601f10620001f357805160ff191683800117855562000224565b8280016001018555821562000224579182015b828111156200022357825182559160200191906001019062000206565b5b50905062000233919062000237565b5090565b5b808211156200025257600081600090555060010162000238565b5090565b7f4e487b7100000000000000000000000000000000000000000000000000000000600052602260045260246000fd5b600060028204905060018216806200029e57607f821691505b60208210811415620002b557620002b462000256565b5b50919050565b61311a80620002cb6000396000f3fe60806040526004361061011f5760003560e01c8063715018a6116100a0578063b88d4fde11610064578063b88d4fde146103ec578063c87b56dd14610415578063d204c45e14610452578063e985e9c51461047b578063f2fde38b146104b85761011f565b8063715018a6146103195780638da5cb5b1461033057806395d89b411461035b5780639f1cabc614610386578063a22cb465146103c35761011f565b806323b872dd116100e757806323b872dd1461021d57806342842e0e14610246578063615fd9e21461026f5780636352211e1461029f57806370a08231146102dc5761011f565b806301ffc9a71461012457806306661abd1461016157806306fdde031461018c578063081812fc146101b7578063095ea7b3146101f4575b600080fd5b34801561013057600080fd5b5061014b60048036038101906101469190611eb4565b6104e1565b6040516101589190611efc565b60405180910390f35b34801561016d57600080fd5b506101766105c3565b6040516101839190611f30565b60405180910390f35b34801561019857600080fd5b506101a16105d4565b6040516101ae9190611fe4565b60405180910390f35b3480156101c357600080fd5b506101de60048036038101906101d99190612032565b610666565b6040516101eb91906120a0565b60405180910390f35b34801561020057600080fd5b5061021b600480360381019061021691906120e7565b6106ac565b005b34801561022957600080fd5b50610244600480360381019061023f9190612127565b6107c4565b005b34801561025257600080fd5b5061026d60048036038101906102689190612127565b610824565b005b610289600480360381019061028491906122af565b610844565b6040516102969190611f30565b60405180910390f35b3480156102ab57600080fd5b506102c660048036038101906102c19190612032565b61096a565b6040516102d391906120a0565b60405180910390f35b3480156102e857600080fd5b5061030360048036038101906102fe919061230b565b610a1c565b6040516103109190611f30565b60405180910390f35b34801561032557600080fd5b5061032e610ad4565b005b34801561033c57600080fd5b50610345610ae8565b60405161035291906120a0565b60405180910390f35b34801561036757600080fd5b50610370610b12565b60405161037d9190611fe4565b60405180910390f35b34801561039257600080fd5b506103ad60048036038101906103a89190612338565b610ba4565b6040516103ba9190611efc565b60405180910390f35b3480156103cf57600080fd5b506103ea60048036038101906103e591906123ad565b610bdf565b005b3480156103f857600080fd5b50610413600480360381019061040e919061248e565b610bf5565b005b34801561042157600080fd5b5061043c60048036038101906104379190612032565b610c57565b6040516104499190611fe4565b60405180910390f35b34801561045e57600080fd5b50610479600480360381019061047491906122af565b610c69565b005b34801561048757600080fd5b506104a2600480360381019061049d9190612511565b610cda565b6040516104af9190611efc565b60405180910390f35b3480156104c457600080fd5b506104df60048036038101906104da919061230b565b610d6e565b005b60007f80ac58cd000000000000000000000000000000000000000000000000000000007bffffffffffffffffffffffffffffffffffffffffffffffffffffffff1916827bffffffffffffffffffffffffffffffffffffffffffffffffffffffff191614806105ac57507f5b5e139f000000000000000000000000000000000000000000000000000000007bffffffffffffffffffffffffffffffffffffffffffffffffffffffff1916827bffffffffffffffffffffffffffffffffffffffffffffffffffffffff1916145b806105bc57506105bb82610df2565b5b9050919050565b60006105cf6008610e5c565b905090565b6060600080546105e390612580565b80601f016020809104026020016040519081016040528092919081815260200182805461060f90612580565b801561065c5780601f106106315761010080835404028352916020019161065c565b820191906000526020600020905b81548152906001019060200180831161063f57829003601f168201915b5050505050905090565b600061067182610e6a565b6004600083815260200190815260200160002060009054906101000a900473ffffffffffffffffffffffffffffffffffffffff169050919050565b60006106b78261096a565b90508073ffffffffffffffffffffffffffffffffffffffff168373ffffffffffffffffffffffffffffffffffffffff161415610728576040517f08c379a000000000000000000000000000000000000000000000000000000000815260040161071f90612624565b60405180910390fd5b8073ffffffffffffffffffffffffffffffffffffffff16610747610eb5565b73ffffffffffffffffffffffffffffffffffffffff161480610776575061077581610770610eb5565b610cda565b5b6107b5576040517f08c379a00000000000000000000000000000000000000000000000000000000081526004016107ac906126b6565b60405180910390fd5b6107bf8383610ebd565b505050565b6107d56107cf610eb5565b82610f76565b610814576040517f08c379a000000000000000000000000000000000000000000000000000000000815260040161080b90612748565b60405180910390fd5b61081f83838361100b565b505050565b61083f83838360405180602001604052806000815250610bf5565b505050565b6000600160098360405161085891906127a4565b908152602001604051809103902060009054906101000a900460ff1660ff1614156108b8576040517f08c379a00000000000000000000000000000000000000000000000000000000081526004016108af90612807565b60405180910390fd5b60003410156108fc576040517f08c379a00000000000000000000000000000000000000000000000000000000081526004016108f390612873565b60405180910390fd5b60006109086008610e5c565b90506109146008611272565b600160098460405161092691906127a4565b908152602001604051809103902060006101000a81548160ff021916908360ff1602179055506109568482611288565b6109608184611462565b8091505092915050565b6000806002600084815260200190815260200160002060009054906101000a900473ffffffffffffffffffffffffffffffffffffffff169050600073ffffffffffffffffffffffffffffffffffffffff168173ffffffffffffffffffffffffffffffffffffffff161415610a13576040517f08c379a0000000000000000000000000000000000000000000000000000000008152600401610a0a906128df565b60405180910390fd5b80915050919050565b60008073ffffffffffffffffffffffffffffffffffffffff168273ffffffffffffffffffffffffffffffffffffffff161415610a8d576040517f08c379a0000000000000000000000000000000000000000000000000000000008152600401610a8490612971565b60405180910390fd5b600360008373ffffffffffffffffffffffffffffffffffffffff1673ffffffffffffffffffffffffffffffffffffffff168152602001908152602001600020549050919050565b610adc6114d6565b610ae66000611554565b565b6000600760009054906101000a900473ffffffffffffffffffffffffffffffffffffffff16905090565b606060018054610b2190612580565b80601f0160208091040260200160405190810160405280929190818152602001828054610b4d90612580565b8015610b9a5780601f10610b6f57610100808354040283529160200191610b9a565b820191906000526020600020905b815481529060010190602001808311610b7d57829003601f168201915b5050505050905090565b60006001600983604051610bb891906127a4565b908152602001604051809103902060009054906101000a900460ff1660ff16149050919050565b610bf1610bea610eb5565b838361161a565b5050565b610c06610c00610eb5565b83610f76565b610c45576040517f08c379a0000000000000000000000000000000000000000000000000000000008152600401610c3c90612748565b60405180910390fd5b610c5184848484611787565b50505050565b6060610c62826117e3565b9050919050565b610c716114d6565b6000610c7d6008610e5c565b9050610c896008611272565b610c9383826118f6565b610c9d8183611462565b6001600983604051610caf91906127a4565b908152602001604051809103902060006101000a81548160ff021916908360ff160217905550505050565b6000600560008473ffffffffffffffffffffffffffffffffffffffff1673ffffffffffffffffffffffffffffffffffffffff16815260200190815260200160002060008373ffffffffffffffffffffffffffffffffffffffff1673ffffffffffffffffffffffffffffffffffffffff16815260200190815260200160002060009054906101000a900460ff16905092915050565b610d766114d6565b600073ffffffffffffffffffffffffffffffffffffffff168173ffffffffffffffffffffffffffffffffffffffff161415610de6576040517f08c379a0000000000000000000000000000000000000000000000000000000008152600401610ddd90612a03565b60405180910390fd5b610def81611554565b50565b60007f01ffc9a7000000000000000000000000000000000000000000000000000000007bffffffffffffffffffffffffffffffffffffffffffffffffffffffff1916827bffffffffffffffffffffffffffffffffffffffffffffffffffffffff1916149050919050565b600081600001549050919050565b610e7381611914565b610eb2576040517f08c379a0000000000000000000000000000000000000000000000000000000008152600401610ea9906128df565b60405180910390fd5b50565b600033905090565b816004600083815260200190815260200160002060006101000a81548173ffffffffffffffffffffffffffffffffffffffff021916908373ffffffffffffffffffffffffffffffffffffffff160217905550808273ffffffffffffffffffffffffffffffffffffffff16610f308361096a565b73ffffffffffffffffffffffffffffffffffffffff167f8c5be1e5ebec7d5bd14f71427d1e84f3dd0314c0f7b2291e5b200ac8c7c3b92560405160405180910390a45050565b600080610f828361096a565b90508073ffffffffffffffffffffffffffffffffffffffff168473ffffffffffffffffffffffffffffffffffffffff161480610fc45750610fc38185610cda565b5b8061100257508373ffffffffffffffffffffffffffffffffffffffff16610fea84610666565b73ffffffffffffffffffffffffffffffffffffffff16145b91505092915050565b8273ffffffffffffffffffffffffffffffffffffffff1661102b8261096a565b73ffffffffffffffffffffffffffffffffffffffff1614611081576040517f08c379a000000000000000000000000000000000000000000000000000000000815260040161107890612a95565b60405180910390fd5b600073ffffffffffffffffffffffffffffffffffffffff168273ffffffffffffffffffffffffffffffffffffffff1614156110f1576040517f08c379a00000000000000000000000000000000000000000000000000000000081526004016110e890612b27565b60405180910390fd5b6110fc838383611980565b611107600082610ebd565b6001600360008573ffffffffffffffffffffffffffffffffffffffff1673ffffffffffffffffffffffffffffffffffffffff16815260200190815260200160002060008282546111579190612b76565b925050819055506001600360008473ffffffffffffffffffffffffffffffffffffffff1673ffffffffffffffffffffffffffffffffffffffff16815260200190815260200160002060008282546111ae9190612baa565b92505081905550816002600083815260200190815260200160002060006101000a81548173ffffffffffffffffffffffffffffffffffffffff021916908373ffffffffffffffffffffffffffffffffffffffff160217905550808273ffffffffffffffffffffffffffffffffffffffff168473ffffffffffffffffffffffffffffffffffffffff167fddf252ad1be2c89b69c2b068fc378daa952ba7f163c4a11628f55a4df523b3ef60405160405180910390a461126d838383611985565b505050565b6001816000016000828254019250508190555050565b600073ffffffffffffffffffffffffffffffffffffffff168273ffffffffffffffffffffffffffffffffffffffff1614156112f8576040517f08c379a00000000000000000000000000000000000000000000000000000000081526004016112ef90612c4c565b60405180910390fd5b61130181611914565b15611341576040517f08c379a000000000000000000000000000000000000000000000000000000000815260040161133890612cb8565b60405180910390fd5b61134d60008383611980565b6001600360008473ffffffffffffffffffffffffffffffffffffffff1673ffffffffffffffffffffffffffffffffffffffff168152602001908152602001600020600082825461139d9190612baa565b92505081905550816002600083815260200190815260200160002060006101000a81548173ffffffffffffffffffffffffffffffffffffffff021916908373ffffffffffffffffffffffffffffffffffffffff160217905550808273ffffffffffffffffffffffffffffffffffffffff16600073ffffffffffffffffffffffffffffffffffffffff167fddf252ad1be2c89b69c2b068fc378daa952ba7f163c4a11628f55a4df523b3ef60405160405180910390a461145e60008383611985565b5050565b61146b82611914565b6114aa576040517f08c379a00000000000000000000000000000000000000000000000000000000081526004016114a190612d4a565b60405180910390fd5b806006600084815260200190815260200160002090805190602001906114d1929190611da5565b505050565b6114de610eb5565b73ffffffffffffffffffffffffffffffffffffffff166114fc610ae8565b73ffffffffffffffffffffffffffffffffffffffff1614611552576040517f08c379a000000000000000000000000000000000000000000000000000000000815260040161154990612db6565b60405180910390fd5b565b6000600760009054906101000a900473ffffffffffffffffffffffffffffffffffffffff16905081600760006101000a81548173ffffffffffffffffffffffffffffffffffffffff021916908373ffffffffffffffffffffffffffffffffffffffff1602179055508173ffffffffffffffffffffffffffffffffffffffff168173ffffffffffffffffffffffffffffffffffffffff167f8be0079c531659141344cd1fd0a4f28419497f9722a3daafe3b4186f6b6457e060405160405180910390a35050565b8173ffffffffffffffffffffffffffffffffffffffff168373ffffffffffffffffffffffffffffffffffffffff161415611689576040517f08c379a000000000000000000000000000000000000000000000000000000000815260040161168090612e22565b60405180910390fd5b80600560008573ffffffffffffffffffffffffffffffffffffffff1673ffffffffffffffffffffffffffffffffffffffff16815260200190815260200160002060008473ffffffffffffffffffffffffffffffffffffffff1673ffffffffffffffffffffffffffffffffffffffff16815260200190815260200160002060006101000a81548160ff0219169083151502179055508173ffffffffffffffffffffffffffffffffffffffff168373ffffffffffffffffffffffffffffffffffffffff167f17307eab39ab6107e8899845ad3d59bd9653f200f220920489ca2b5937696c318360405161177a9190611efc565b60405180910390a3505050565b61179284848461100b565b61179e8484848461198a565b6117dd576040517f08c379a00000000000000000000000000000000000000000000000000000000081526004016117d490612eb4565b60405180910390fd5b50505050565b60606117ee82610e6a565b600060066000848152602001908152602001600020805461180e90612580565b80601f016020809104026020016040519081016040528092919081815260200182805461183a90612580565b80156118875780601f1061185c57610100808354040283529160200191611887565b820191906000526020600020905b81548152906001019060200180831161186a57829003601f168201915b505050505090506000611898611b21565b90506000815114156118ae5781925050506118f1565b6000825111156118e35780826040516020016118cb929190612ed4565b604051602081830303815290604052925050506118f1565b6118ec84611b5e565b925050505b919050565b611910828260405180602001604052806000815250611bc6565b5050565b60008073ffffffffffffffffffffffffffffffffffffffff166002600084815260200190815260200160002060009054906101000a900473ffffffffffffffffffffffffffffffffffffffff1673ffffffffffffffffffffffffffffffffffffffff1614159050919050565b505050565b505050565b60006119ab8473ffffffffffffffffffffffffffffffffffffffff16611c21565b15611b14578373ffffffffffffffffffffffffffffffffffffffff1663150b7a026119d4610eb5565b8786866040518563ffffffff1660e01b81526004016119f69493929190612f4d565b602060405180830381600087803b158015611a1057600080fd5b505af1925050508015611a4157506040513d601f19601f82011682018060405250810190611a3e9190612fae565b60015b611ac4573d8060008114611a71576040519150601f19603f3d011682016040523d82523d6000602084013e611a76565b606091505b50600081511415611abc576040517f08c379a0000000000000000000000000000000000000000000000000000000008152600401611ab390612eb4565b60405180910390fd5b805181602001fd5b63150b7a0260e01b7bffffffffffffffffffffffffffffffffffffffffffffffffffffffff1916817bffffffffffffffffffffffffffffffffffffffffffffffffffffffff191614915050611b19565b600190505b949350505050565b60606040518060400160405280600781526020017f697066733a2f2f00000000000000000000000000000000000000000000000000815250905090565b6060611b6982610e6a565b6000611b73611b21565b90506000815111611b935760405180602001604052806000815250611bbe565b80611b9d84611c44565b604051602001611bae929190612ed4565b6040516020818303038152906040525b915050919050565b611bd08383611288565b611bdd600084848461198a565b611c1c576040517f08c379a0000000000000000000000000000000000000000000000000000000008152600401611c1390612eb4565b60405180910390fd5b505050565b6000808273ffffffffffffffffffffffffffffffffffffffff163b119050919050565b60606000821415611c8c576040518060400160405280600181526020017f30000000000000000000000000000000000000000000000000000000000000008152509050611da0565b600082905060005b60008214611cbe578080611ca790612fdb565b915050600a82611cb79190613053565b9150611c94565b60008167ffffffffffffffff811115611cda57611cd9612184565b5b6040519080825280601f01601f191660200182016040528015611d0c5781602001600182028036833780820191505090505b5090505b60008514611d9957600182611d259190612b76565b9150600a85611d349190613084565b6030611d409190612baa565b60f81b818381518110611d5657611d556130b5565b5b60200101907effffffffffffffffffffffffffffffffffffffffffffffffffffffffffffff1916908160001a905350600a85611d929190613053565b9450611d10565b8093505050505b919050565b828054611db190612580565b90600052602060002090601f016020900481019282611dd35760008555611e1a565b82601f10611dec57805160ff1916838001178555611e1a565b82800160010185558215611e1a579182015b82811115611e19578251825591602001919060010190611dfe565b5b509050611e279190611e2b565b5090565b5b80821115611e44576000816000905550600101611e2c565b5090565b6000604051905090565b600080fd5b600080fd5b60007fffffffff0000000000000000000000000000000000000000000000000000000082169050919050565b611e9181611e5c565b8114611e9c57600080fd5b50565b600081359050611eae81611e88565b92915050565b600060208284031215611eca57611ec9611e52565b5b6000611ed884828501611e9f565b91505092915050565b60008115159050919050565b611ef681611ee1565b82525050565b6000602082019050611f116000830184611eed565b92915050565b6000819050919050565b611f2a81611f17565b82525050565b6000602082019050611f456000830184611f21565b92915050565b600081519050919050565b600082825260208201905092915050565b60005b83811015611f85578082015181840152602081019050611f6a565b83811115611f94576000848401525b50505050565b6000601f19601f8301169050919050565b6000611fb682611f4b565b611fc08185611f56565b9350611fd0818560208601611f67565b611fd981611f9a565b840191505092915050565b60006020820190508181036000830152611ffe8184611fab565b905092915050565b61200f81611f17565b811461201a57600080fd5b50565b60008135905061202c81612006565b92915050565b60006020828403121561204857612047611e52565b5b60006120568482850161201d565b91505092915050565b600073ffffffffffffffffffffffffffffffffffffffff82169050919050565b600061208a8261205f565b9050919050565b61209a8161207f565b82525050565b60006020820190506120b56000830184612091565b92915050565b6120c48161207f565b81146120cf57600080fd5b50565b6000813590506120e1816120bb565b92915050565b600080604083850312156120fe576120fd611e52565b5b600061210c858286016120d2565b925050602061211d8582860161201d565b9150509250929050565b6000806000606084860312156121405761213f611e52565b5b600061214e868287016120d2565b935050602061215f868287016120d2565b92505060406121708682870161201d565b9150509250925092565b600080fd5b600080fd5b7f4e487b7100000000000000000000000000000000000000000000000000000000600052604160045260246000fd5b6121bc82611f9a565b810181811067ffffffffffffffff821117156121db576121da612184565b5b80604052505050565b60006121ee611e48565b90506121fa82826121b3565b919050565b600067ffffffffffffffff82111561221a57612219612184565b5b61222382611f9a565b9050602081019050919050565b82818337600083830152505050565b600061225261224d846121ff565b6121e4565b90508281526020810184848401111561226e5761226d61217f565b5b612279848285612230565b509392505050565b600082601f8301126122965761229561217a565b5b81356122a684826020860161223f565b91505092915050565b600080604083850312156122c6576122c5611e52565b5b60006122d4858286016120d2565b925050602083013567ffffffffffffffff8111156122f5576122f4611e57565b5b61230185828601612281565b9150509250929050565b60006020828403121561232157612320611e52565b5b600061232f848285016120d2565b91505092915050565b60006020828403121561234e5761234d611e52565b5b600082013567ffffffffffffffff81111561236c5761236b611e57565b5b61237884828501612281565b91505092915050565b61238a81611ee1565b811461239557600080fd5b50565b6000813590506123a781612381565b92915050565b600080604083850312156123c4576123c3611e52565b5b60006123d2858286016120d2565b92505060206123e385828601612398565b9150509250929050565b600067ffffffffffffffff82111561240857612407612184565b5b61241182611f9a565b9050602081019050919050565b600061243161242c846123ed565b6121e4565b90508281526020810184848401111561244d5761244c61217f565b5b612458848285612230565b509392505050565b600082601f8301126124755761247461217a565b5b813561248584826020860161241e565b91505092915050565b600080600080608085870312156124a8576124a7611e52565b5b60006124b6878288016120d2565b94505060206124c7878288016120d2565b93505060406124d88782880161201d565b925050606085013567ffffffffffffffff8111156124f9576124f8611e57565b5b61250587828801612460565b91505092959194509250565b6000806040838503121561252857612527611e52565b5b6000612536858286016120d2565b9250506020612547858286016120d2565b9150509250929050565b7f4e487b7100000000000000000000000000000000000000000000000000000000600052602260045260246000fd5b6000600282049050600182168061259857607f821691505b602082108114156125ac576125ab612551565b5b50919050565b7f4552433732313a20617070726f76616c20746f2063757272656e74206f776e6560008201527f7200000000000000000000000000000000000000000000000000000000000000602082015250565b600061260e602183611f56565b9150612619826125b2565b604082019050919050565b6000602082019050818103600083015261263d81612601565b9050919050565b7f4552433732313a20617070726f76652063616c6c6572206973206e6f7420746f60008201527f6b656e206f776e6572206e6f7220617070726f76656420666f7220616c6c0000602082015250565b60006126a0603e83611f56565b91506126ab82612644565b604082019050919050565b600060208201905081810360008301526126cf81612693565b9050919050565b7f4552433732313a2063616c6c6572206973206e6f7420746f6b656e206f776e6560008201527f72206e6f7220617070726f766564000000000000000000000000000000000000602082015250565b6000612732602e83611f56565b915061273d826126d6565b604082019050919050565b6000602082019050818103600083015261276181612725565b9050919050565b600081905092915050565b600061277e82611f4b565b6127888185612768565b9350612798818560208601611f67565b80840191505092915050565b60006127b08284612773565b915081905092915050565b7f4e465420616c7265616479206d696e7465642100000000000000000000000000600082015250565b60006127f1601383611f56565b91506127fc826127bb565b602082019050919050565b60006020820190508181036000830152612820816127e4565b9050919050565b7f4e65656420746f20706179207570210000000000000000000000000000000000600082015250565b600061285d600f83611f56565b915061286882612827565b602082019050919050565b6000602082019050818103600083015261288c81612850565b9050919050565b7f4552433732313a20696e76616c696420746f6b656e2049440000000000000000600082015250565b60006128c9601883611f56565b91506128d482612893565b602082019050919050565b600060208201905081810360008301526128f8816128bc565b9050919050565b7f4552433732313a2061646472657373207a65726f206973206e6f74206120766160008201527f6c6964206f776e65720000000000000000000000000000000000000000000000602082015250565b600061295b602983611f56565b9150612966826128ff565b604082019050919050565b6000602082019050818103600083015261298a8161294e565b9050919050565b7f4f776e61626c653a206e6577206f776e657220697320746865207a65726f206160008201527f6464726573730000000000000000000000000000000000000000000000000000602082015250565b60006129ed602683611f56565b91506129f882612991565b604082019050919050565b60006020820190508181036000830152612a1c816129e0565b9050919050565b7f4552433732313a207472616e736665722066726f6d20696e636f72726563742060008201527f6f776e6572000000000000000000000000000000000000000000000000000000602082015250565b6000612a7f602583611f56565b9150612a8a82612a23565b604082019050919050565b60006020820190508181036000830152612aae81612a72565b9050919050565b7f4552433732313a207472616e7366657220746f20746865207a65726f2061646460008201527f7265737300000000000000000000000000000000000000000000000000000000602082015250565b6000612b11602483611f56565b9150612b1c82612ab5565b604082019050919050565b60006020820190508181036000830152612b4081612b04565b9050919050565b7f4e487b7100000000000000000000000000000000000000000000000000000000600052601160045260246000fd5b6000612b8182611f17565b9150612b8c83611f17565b925082821015612b9f57612b9e612b47565b5b828203905092915050565b6000612bb582611f17565b9150612bc083611f17565b9250827fffffffffffffffffffffffffffffffffffffffffffffffffffffffffffffffff03821115612bf557612bf4612b47565b5b828201905092915050565b7f4552433732313a206d696e7420746f20746865207a65726f2061646472657373600082015250565b6000612c36602083611f56565b9150612c4182612c00565b602082019050919050565b60006020820190508181036000830152612c6581612c29565b9050919050565b7f4552433732313a20746f6b656e20616c7265616479206d696e74656400000000600082015250565b6000612ca2601c83611f56565b9150612cad82612c6c565b602082019050919050565b60006020820190508181036000830152612cd181612c95565b9050919050565b7f45524337323155524953746f726167653a2055524920736574206f66206e6f6e60008201527f6578697374656e7420746f6b656e000000000000000000000000000000000000602082015250565b6000612d34602e83611f56565b9150612d3f82612cd8565b604082019050919050565b60006020820190508181036000830152612d6381612d27565b9050919050565b7f4f776e61626c653a2063616c6c6572206973206e6f7420746865206f776e6572600082015250565b6000612da0602083611f56565b9150612dab82612d6a565b602082019050919050565b60006020820190508181036000830152612dcf81612d93565b9050919050565b7f4552433732313a20617070726f766520746f2063616c6c657200000000000000600082015250565b6000612e0c601983611f56565b9150612e1782612dd6565b602082019050919050565b60006020820190508181036000830152612e3b81612dff565b9050919050565b7f4552433732313a207472616e7366657220746f206e6f6e20455243373231526560008201527f63656976657220696d706c656d656e7465720000000000000000000000000000602082015250565b6000612e9e603283611f56565b9150612ea982612e42565b604082019050919050565b60006020820190508181036000830152612ecd81612e91565b9050919050565b6000612ee08285612773565b9150612eec8284612773565b91508190509392505050565b600081519050919050565b600082825260208201905092915050565b6000612f1f82612ef8565b612f298185612f03565b9350612f39818560208601611f67565b612f4281611f9a565b840191505092915050565b6000608082019050612f626000830187612091565b612f6f6020830186612091565b612f7c6040830185611f21565b8181036060830152612f8e8184612f14565b905095945050505050565b600081519050612fa881611e88565b92915050565b600060208284031215612fc457612fc3611e52565b5b6000612fd284828501612f99565b91505092915050565b6000612fe682611f17565b91507fffffffffffffffffffffffffffffffffffffffffffffffffffffffffffffffff82141561301957613018612b47565b5b600182019050919050565b7f4e487b7100000000000000000000000000000000000000000000000000000000600052601260045260246000fd5b600061305e82611f17565b915061306983611f17565b92508261307957613078613024565b5b828204905092915050565b600061308f82611f17565b915061309a83611f17565b9250826130aa576130a9613024565b5b828206905092915050565b7f4e487b7100000000000000000000000000000000000000000000000000000000600052603260045260246000fdfea264697066735822122023e60082af019f2d558d964817732b8656f7b2dea60e0656a16e46d3466e0a5264736f6c63430008090033",
  "linkReferences": {},
  "deployedLinkReferences": {}
}